:0700B7001200038F9080F995
:100092000102030405060708090A0B0C0D0E0F10D6
:0900AE00A2B582B482B682B72229
:10000300D2B7D2B6D2B5D2B4C2B3C2B2C2B1C2B001
:100013001200AE4004C2B080F7D2B3D2B2D2B11252
:1000230000AE4004E4FD8031C2B1D2B3D2B2D2B04B
:100033001200AE40047D018020C2B2D2B3D2B0D24E
:10004300B11200AE40047D02800FC2B3D2B0D2B26F
:10005300D2B11200AE40027D0320B404E4FE80134B
:1000630020B5047E01800C20B6047E02800520B7F3
:10007300027E03ED25E025E02492F582E43400F5C9
:0E00830083E5822EF582E43583F583E493FF56
:01009100224C
:030000000200A259
:0C00A200787FE4F6D8FD7581070200B7F6
:00000001FF
