:10000600202020202020202020202020202A2A2ACC
:100016002A2A2020202020202020202020202020C6
:1000260020202020202020202020204D454E552015
:1000360020202020202020202020202020202020BA
:10004600202020202020202A2A2A2A202020202082
:10005600202020202020202020202020202020209A
:1000660020202020200A0D002A2A2A2A2A2A2A2A83
:100076002A2A2A2A2A2A2A2A2A2A2A2A2A2A2A2ADA
:100086002A2A2A2A2A2A2020202020454E54455250
:100096002028412920544F20434845434B204C45B6
:1000A600447320202020202A2A2A2A2A2A2A2A2A79
:1000B6002A2A2A2A2A2A2A2A2A2A2A2A2A2A2A2A9A
:1000C6002A2A2A2A2A2A2A2A2A2A2A2A2A0A0D00F1
:1000D6002A2A2A2A2A2A2A2A2A2A2A2A2A2A2A2A7A
:1000E6002A2A2A2A2A2A2A2A2A2A2A2A2A2A20207E
:1000F600202020454E5445522028422920544F2086
:10010600434845434B204C43442020202020202AAE
:100116002A2A2A2A2A2A2A2A2A2A2A2A2A2A2A2A39
:100126002A2A2A2A2A2A2A2A2A2A2A2A2A2A2A2A29
:100136002A2A2A2A2A0A0D002A2A2A2A2A2A2A2A80
:100146002A2A2A2A2A2A2A2A2A2A2A2A2A2A2A2A09
:100156002A2A2A2A2A2A2020202020454E5445527F
:100166002028432920544F20434845434B205357CA
:10017600495443482020202A2A2A2A2A2A2A2A2A77
:100186002A2A2A2A2A2A2A2A2A2A2A2A2A2A2A2AC9
:100196002A2A2A2A2A2A2A2A2A2A2A2A2A0A0D0020
:1001A6002A2A2A2A2A2A2A2A2A2A2A2A2A2A2A2AA9
:1001B6002A2A2A2A2A2A2A2A2A2A2A2A2A2A2020AD
:1001C600202020454E5445522028442920544F20B3
:1001D600434845434B203720534547202020202ABB
:1001E6002A2A2A2A2A2A2A2A2A2A2A2A2A2A2A2A69
:1001F6002A2A2A2A2A2A2A2A2A2A2A2A2A2A2A2A59
:100206002A2A2A2A2A0A0D002A2A2A2A2A2A2A2AAF
:100216002A2A2A2A2A2A2A2A2A2A2A2A2A2A2A2A38
:100226002A2A2A2A2A2A2020202020454E544552AE
:100236002028462920544F20434845434B204B4510
:10024600595041442020202A2A2A2A2A2A2A2A2AA0
:100256002A2A2A2A2A2A2A2A2A2A2A2A2A2A2A2AF8
:100266002A2A2A2A2A2A2A2A2A2A2A2A2A0A0D004F
:100276002A2A2A2A2A2A2A2A2A2A2A2A2A2A2A2AD8
:100286002A2A2A2A2A2A2A2A2A2A2A2A2A2A2020DC
:10029600202020454E5445522028472920544F20DF
:1002A600434845434B205541525420202020202AC4
:1002B6002A2A2A2A2A2A2A2A2A2A2A2A2A2A2A2A98
:1002C6002A2A2A2A2A2A2A2A2A2A2A2A2A2A2A2A88
:1002D6002A2A2A2A2A0A0D002A2A2A2A2A2A2A2ADF
:1002E6002A2A2A2A2A2A2A2A2A2A2A2A2A2A2A2A68
:1002F6002A2A2A2A2A2A2020202020454E544552DE
:100306002028482920544F20434845434B20493252
:10031600432020202020202A2A2A2A2A2A2A2A2A5A
:100326002A2A2A2A2A2A2A2A2A2A2A2A2A2A2A2A27
:100336002A2A2A2A2A2A2A2A2A2A2A2A2A0A0D007E
:100346002A2A2A2A2A2A2A2A2A2A2A2A2A2A2A2A07
:100356002A2A2A2A2A2A2A2A2A2A2A2A2A2A20200B
:10036600202020454E5445522028492920544F200C
:10037600434845434B205350492020202020202A23
:100386002A2A2A2A2A2A2A2A2A2A2A2A2A2A2A2AC7
:100396002A2A2A2A2A2A2A2A2A2A2A2A2A2A2A2AB7
:1003A6002A2A2A2A2A0A0D002A2A2A2A2A2A2A2A0E
:1003B6002A2A2A2A2A2A2A2A2A2A2A2A2A2A2A2A97
:1003C6002A2A2A2A2A2A2020202020454E5445520D
:1003D60020284A2920544F20434845434B20495260
:1003E600202020202020202A2A2A2A2A2A2A2A2AAD
:1003F6002A2A2A2A2A2A2A2A2A2A2A2A2A2A2A2A57
:100406002A2A2A2A2A2A2A2A2A2A2A2A2A0A0D00AD
:100416002A2A2A2A2A2A2A2A2A2A2A2A2A2A2A2A36
:100426002A2A2A2A2A2A2A2A2A2A2A2A2A2A20203A
:10043600202020454E54455220284B2920544F2039
:10044600434845434B204443204D4F544F52202AA6
:100456002A2A2A2A2A2A2A2A2A2A2A2A2A2A2A2AF6
:100466002A2A2A2A2A2A2A2A2A2A2A2A2A2A2A2AE6
:100476002A2A2A2A2A0A0D002A2A2A2A2A2A2A2A3D
:100486002A2A2A2A2A2A2A2A2A2A2A2A2A2A2A2AC6
:100496002A2A2A2A2A2A2020202020454E5445523C
:1004A60020284C2920544F20434845434B20535481
:1004B6005052204D5452202A2A2A2A2A2A2A2A2AE7
:1004C6002A2A2A2A2A2A2A2A2A2A2A2A2A2A2A2A86
:1004D6002A2A2A2A2A2A2A2A2A2A2A2A2A0A0D00DD
:1004E6002A2A2A2A2A2A2A2A2A2A2A2A2A2A2A2A66
:1004F6002A2A2A2A2A2A2A2A2A2A2A2A2A2A20206A
:10050600202020454E54455220284D2920544F2066
:10051600434845434B20534552564F204D54522A8B
:100526002A2A2A2A2A2A2A2A2A2A2A2A2A2A2A2A25
:100536002A2A2A2A2A2A2A2A2A2A2A2A2A2A2A2A15
:100546002A2A2A2A2A0A0D002A2A2A2A2A2A2A2A6C
:100556002A2A2A2A2A2A2A2A2A2A2A2A2A2A2A2AF5
:100566002A2A2A2A2A2A2020202020454E5445526B
:100576002028452920544F20455849542020202022
:10058600202020202020202A2A2A2A2A2A2A2A2A0B
:100596002A2A2A2A2A2A2A2A2A2A2A2A2A2A2A2AB5
:1005A6002A2A2A2A2A2A2A2A2A2A2A2A2A0A0D000C
:1005B6000A2A2A2A2A2A2A2A2A2A2A2A2A2A2A2AB5
:1005C6002A2A2A2A2A2A2A2A202020656E74657257
:1005D6002074686520636F72726563742063686F48
:1005E60069636520696E207570706572206361733A
:1005F600652020202A2A2A2A2A2A2A2A2A2A2A2A38
:100606002A2A2A2A2A2A2A2A2A2A2A2A2A2A2A2A44
:100616002A2A2A2A0A0D00696E76616C69642063AB
:10062600686F6963652D2D2D656E7465722074681B
:100636006520636F7272656374206F7074696F6E84
:1006460020696E20757070657220636173650A0D8E
:0106560000A3
:1015BD00121EDD7BFF7A007906121DCB7BFF7A00B0
:1015CD00796E121DCB7BFF7A0079D6121DCB7BFF76
:1015DD007A01793E121DCB7BFF7A0179A6121DCBC4
:1015ED007BFF7A02790E121DCB7BFF7A0279761280
:1015FD001DCB7BFF7A0279DE121DCB7BFF7A03793F
:10160D0046121DCB7BFF7A0379AE121DCB7BFF7A81
:10161D00047916121DCB7BFF7A04797E121DCB7BCC
:10162D00FF7A0479E6121DCB7BFF7A05794E121DE8
:10163D00CB7BFF7A0579B6121DCB121F0F8F0BE5F1
:10164D000B24BFB40D00506590166375F003A4C54F
:10165D008325F0C5837302168A0216900216960230
:10166D00169C0216C60216A20216A80216AE021586
:10167D00BD0216B40215BD0215BD0215BD1219A08D
:10168D000215BD121C5F0215BD12125D0215BD12B1
:10169D001A6B0215BD1210710215BD121B36021503
:1016AD00BD1218B60215BD121EAE0215BD7BFF7A16
:0916BD0006791D121DCB0215BDBA
:0116C6002201
:101E4A00D3EF9400EE9400400F7DFFDDFE7DE8DDC8
:081E5A00FEEF1F70EB1E80E893
:011E6200225D
:10141F004932432054455354494E470A0D00505208
:10142F0045535320454E54455220544F20434F4E61
:10143F0054494E5545204146544552204841524447
:10144F005741524520434F4E4E454354494F4E0A44
:10145F000D00495320545820616E6420525820418A
:10146F00524520574F524B494E472050524F5045EF
:10147F00524C592E2E2E203F3F3F0A0D00507265C1
:10148F00737320792D59455320286F7229206E2DA3
:10149F004E302020286F72292020652D45786974E1
:1014AF000A0D000A0D00446F20796F752077616E69
:1014BF007420746F20636F6E74696E75653F0A0DCB
:1014CF0000706C7A2070726573732076616C69643A
:1014DF00206B657920746F20636F6E74696E75650C
:1014EF000A0D00666F6C6C6F77696E6720617265AD
:1014FF002074686520706F73736962696C697469B1
:10150F006573206F6620746865206572726F723A1A
:10151F002D0A0D00312E636865636B20796F75722C
:10152F002070726F6772616D206C6F6769630A0D4F
:10153F0000322E636865636B20796F757220686166
:10154F0072647761726520636F6E656374696F6E25
:10155F000A0D00332E636865636B2077697468200A
:10156F00746865206F7468657220284B4559504127
:10157F0044204F52204B495429636F6D706F6E6535
:10158F006E74206E207665726966792057484554CF
:10159F004845522049542072656D61696E5320632E
:0E15AF006C6F736544206F72204F4E0A0D0062
:071F1700D2B1D2B0C2B12229
:021DA000AD078D
:101DA200E4FCC2B074807E00A804088006CEA2E7DC
:101DB20013CE13D8F8FFEDFBEF5B6003D38001C3B2
:081DC20092B1D2B00CBC08DAAA
:011DCA0022F6
:101E6300A905121F17121DA0121E73AF01121DA088
:091E7300C2B0D2B1D2B0C2B0225B
:091EEC00C2B0C2B1D2B1D2B022E1
:101DF000E4FFD2B1FED2B030B10D7480A8060880E5
:0D1E000002C313D8FC4207C2B00EBE08E8B2
:011E0D0022B2
:091EF500C2B0D2B1D2B0C2B022D9
:101E7C00AE07AA03121E63AF02121DA0121E73122C
:091E8C001EEC7F0A7E00021E4AD2
:021E0E00AA0721
:101E1000121E63121F17EA4401FF121DA0121E7347
:0B1E2000121DF0121EF5121EEC7E00D9
:011E2B002294
:1018B6007BFF7A14791F121DCB7BFF7A14792D12C8
:1018C6001DCB121F0F8F1BE51B640D600302199FB2
:1018D600121E2C7F54121F237B74E4FD7FA0121E60
:1018E6007C7FE87E03121E4A7FC0121F1EE4FD7F26
:1018F600A0121E0E8F1A121F237BFF7A1479611213
:101906001DCB7BFF7A14798C121DCB7BFF7A147961
:10191600B2121DCB121F0F8F1BE51B647970477B1C
:10192600FF7A1479B5121DCB7BFF7A14798C121DC0
:10193600CB121F0F8F1BE51B647970030218B6E5E7
:101946001BB465047F0180027F00E51BB46E047E34
:101956000180027E00EE4F600475800F227BFF7AC5
:101966001479D0021DCBE51B646E702D7BFF7A14B3
:1019760079F2121DCB7BFF7A1479B2121DCB7BFF55
:101986007A157923121DCB7BFF7A157940121DCB70
:091996007BFF7A157962121DCB6A
:01199F002225
:101CE10070726573732072656D6F746520737769A7
:101CF1007463682E2E2E20616E6420656E74657289
:101D01000A0D00495220495320574F524B494E4723
:101D11002050524F5045524C590A0D00446F2059E2
:101D21006F752077616E7420636F6E74696E75656F
:101D31003F28707265737320616E79206B6579201D
:101D4100746F20636F6E74696E75653A2D0A0D00AC
:101EAE00D2AFD2A87BFF7A1C79E1121DCB021F0F95
:03000300021D518A
:101D5100C0E0C0F0C083C082C0D075D000C000C058
:101D610001C002C003C004C005C006C007B2807B29
:101D7100FF7A1D7904121DCB7BFF7A1D791D121D7F
:101D8100CB121F0FD007D006D005D004D003D0024C
:0F1D9100D001D000D0D0D082D083D0F0D0E032BB
:100BDD00596F752061726520696E204B6579706162
:100BED006420746573742E2E2E0A0D00436F6E6E85
:100BFD006563742043302D433320746F2050322EA3
:100C0D00342D50322E3720616E642052302D5233E8
:100C1D0020746F2050322E302D50322E330A0D009D
:100C2D00456E74657220616E79206B657920746FE5
:100C3D002074657374206B65797061642E2E2E0A95
:100C4D000D007072657373206B657970616420732C
:100C5D0077697463682077697468696E2031303004
:100C6D006D732074696D650A0D0076616C75652074
:100C7D006F66206B65797363616E2069730A0D0071
:100C8D006B6579706164207363616E207375636346
:100C9D006573732E2E2E0A0D0052656C656173659A
:100CAD002070726573736564206B65792E2E2E0A24
:100CBD000D00446F20596F752077616E7420746F2D
:100CCD0020636F6E74696E7565206B6579706164F4
:100CDD0020746573743F0A0D00456E74657220278C
:100CED007927666F7220636F6E7469756520616E0A
:100CFD006420276E2720666F7220657869740A0D4F
:100D0D0000636F6E74696E7565206B6579706164D3
:100D1D0020746573742E2E2E0A0D00657869746922
:100D2D006E672066726F6D206B65797061642074DB
:100D3D006573740A0D00496E76616C696420636891
:100D4D006F6963652E547279616761696E210A0D51
:100D5D000044696420796F75205072657373656402
:100D6D0020746865206B6579706164207377697490
:100D7D0063683F287929666F722059657320616E0B
:100D8D006420286E29666F72204E6F0A0D006B6508
:100D9D0079706164206973206E6F7420776F726B48
:100DAD00696E670A0D006B65797061640069732067
:100DBD006E6F7420776F726B696E670A0D004E4F00
:100DCD00206B657970616420737769746368207036
:100DDD007265737365642077697468696E2031304C
:100DED00306D732074696D650A0D00496E76616C06
:100DFD0069642063686F6963652E20747279206160
:100E0D006761696E210A0D00436F6E6E65746374C0
:100E1D00696F6E2070726F626C656D2E43686563CD
:100E2D006B20636F6E6E656374696F6E0A0D0001E2
:0F0E3D0002030405060708090A0B0C0D0E0F101F
:021ECE00C10051
:091EFE00A2A582A482A682A722FB
:10107100C2A3C2A2C2A1C2A0D2A7D2A6D2A5D2A403
:10108100C2007BFF7A0B79DD0212567BFF7A0B7966
:10109100F90211C37BFF7A0C792D121DCB121F0FA0
:1010A1007BFF7A0C794F121DCBE4FFFEE4F50EF5C0
:1010B1000F050FE50F7002050EB401F5E50EB4043E
:1010C100F0121EFE4004D200800B0FBF00010EBEC5
:1010D10008DABF01D7C2A0D2A3D2A2D2A1121EFEAA
:1010E1004005E4F5198034C2A1D2A3D2A2D2A01244
:1010F1001EFE40057519018022C2A2D2A3D2A1D23F
:10110100A0121EFE40057519028010C2A3D2A2D200
:10111100A1D2A0121EFE400375190320A403E4F519
:101121001820A50375180120A60375180220A7032E
:1011310075180320000302125C121EFE50FBE51914
:1011410025E025E0243CF582E4340EF583E5822593
:1011510018F582E43583F583E493F50C7BFF7A0C73
:101161007977121DCBE50C2430FF121F07E50CC364
:1011710094014077E50CD3941050707BFF7A0C7981
:101181008D121DCB7BFF7A0C79A6121DCB121EFE90
:1011910050FB7BFF7A0C79BF121DCB7BFF7A0C7958
:1011A100E6121DCB121F0F750E008F0FE50F64792C
:1011B100450E6008E50F6459450E700C7BFF7A0DF2
:1011C100790E121DCB021095E50F646E450E600875
:1011D100E50F644E450E70087BFF7A0D7928804E2D
:1011E1007BFF7A0D7943121DCB80A72000617BFF25
:1011F1007A0D795E121DCB121F0F8F0DE50D6479EB
:101201006006E50D645970297BFF7A0D799B121DEB
:10121100CB7BFF7A0D79B3121DCBE51925E025E0D3
:1012210025182430FF121F077BFF7A0D79BA021DA2
:10123100CBE50D646E6005E50DB44E087BFF7A0DBC
:1012410079CB80117BFF7A0D79F8121DCB809F7BC2
:0B125100FF7A0E7915121DCB02108CE5
:01125C00226F
:1016C700594F552041524520494E204C4344205400
:1016D700455354494E47204D4F44554C450A0D003C
:1016E700636F6E6E65637420706F72742050302064
:1016F700746F20646174612070696E73206F662057
:101707006C636409636F6E6E65637420706F7274C7
:101717002050322E3020746F207273202C50322EBE
:101727003120746F2072772C50322E3220746F2044
:10173700656E0A0D0054455354494E472E2E0A0D27
:1017470000456E74657220616E79206B657920742F
:101757006F20746573742E2E2E0A0D0063686563FF
:101767006B204120746F205A20636861726563742F
:101777006572732061726520646973706C61796941
:101787006E67206F72206E6F743F0A656E746572A4
:10179700285929666F7220596573284E29666F721A
:1017A700204E6F0A0D005965732C4C6364206973D2
:1017B70020776F726B696E672066696E650A0D0028
:101EBE008F80C2A1D2A27F027E00121E4AC2A2222F
:051F1E00C2A0021EBE7E
:051F2300D2A0021EBE69
:101E2C007F01121F1E7F02121F1E7F06121F1E7FB4
:0E1E3C000C121F1E7F38121F1E7F80021F1EF9
:101C5F00121E2C7BFF7A1679C7121DCB7BFF7A16CB
:101C6F0079E7121DCB7BFF7A17793C121DCB7BFFD7
:101C7F007A177948121DCB121F0FE4F50D750C4220
:101C8F007F80121F1EAF0C121F23E4F50CE50DD33E
:101C9F00940F40117FC0121F1EAF0C121F237FE83D
:101CAF007E03121E4A050DE50DC3941A40CF7BFF2C
:101CBF007A177963121DCB121F0F8F0EE50E645921
:101CCF006006E50E6479708B7BFF7A1779AD121D74
:011CDF00CB39
:011CE00022E1
:10093E00594F552041524520494E204C4544205494
:10094E00455354494E47204D4F44554C450A0D00D2
:10095E00636F6E6E65637420706F72742050302EEC
:10096E00302D50302E3320746F206163746976659C
:10097E00204C6F77204C45447309636F6E6E656330
:10098E007420706F72742050302E342D50302E37EC
:10099E0020746F20616374697665204869676820EA
:1009AE004C4544730A0D0054455354494E472E2E60
:1009BE000A0D00456E74657220616E79206B657943
:1009CE0020746F20746573742E2E2E0A0D006368CA
:1009DE0065636B20616C6C20746865204C65647374
:1009EE0020676C6F77696E67206F72206E6F743F31
:1009FE000A656E746572285929666F72205965737F
:100A0E00284E29666F72204E6F0A0D005965732CA1
:100A1E00416C6C20746865204C454473206172658E
:100A2E0020676C6F77696E670A0D00636F6E6E6577
:100A3E00637420706F72742050302E302D50302E13
:100A4E003320746F20616374697665204C6F772054
:100A5E004C4544730A636F6E6E65637420706F72DB
:100A6E00742050302E342D50302E3720746F20616C
:100A7E0063746976652048696768204C4544730A3B
:100A8E000D004572726F7220706F736962696C69C6
:100A9E00746965732E2E2E0A0D00636865636B20D4
:100AAE007768657468657220414E59204C45442024
:100ABE0049532044414D414745442E2E2E0A0D00E8
:100ACE005459504520283129204946204C45442070
:100ADE0044616D616765640A00636865636B2049F4
:100AEE004620616E7920434F4E4E454354494F4E3A
:100AFE002049532057524F4E472E2E2E0A0D00548A
:100B0E005950452028322920494620636F6E6E6564
:100B1E006374696F6E2050726F626C656D0A0D00A2
:100B2E00536F727279214C45442044616D61676543
:100B3E00640A0D00436F6E6E656374696F6E20708C
:100B4E00526F626C656D2E20436F6E6E65637420FE
:100B5E00616363636F7264696E6720746F20616294
:100B6E006F766520696E737472756374696F6E0A41
:100B7E000D00496E76616C69642063686F69636508
:100B8E002E456E746572202831296F7228322966BF
:100B9E006F72206572726F7220636865636B0A0DE7
:100BAE0000696E76616C69642063686F6963652E97
:100BBE00456E74657220285929666F7220596573C7
:0F0BCE00206F72284E29666F72204E6F0A0D003D
:1019A0007BFF7A09793E121DCB7BFF7A09795E12A3
:1019B0001DCB75800F7BFF7A0979B5021A657BFF15
:1019C0007A0979C1121DCB121F0F7580F07BFF7A47
:1019D0000979DC121DCB121F0F8F0CE50C645960C6
:1019E00005E50CB4790D7BFF7A0A791A121DCB75C7
:1019F000800F22E50C644E6006E50C646E70607B1F
:101A0000FF7A0A793980537BFF7A0A7990121DCBCD
:101A10007BFF7A0A79A8121DCB7BFF7A0A79CE1256
:101A20001DCB7BFF7A0A79E7121DCB7BFF7A0B79FE
:101A30000D121DCB121F0F8F0DE50DB431087BFF6A
:101A40007A0B792E800BE50DB432097BFF7A0B7986
:101A500042021DCB7BFF7A0B7980121DCB80A87BC5
:0B1A6000FF7A0B79AF121DCB0219BEFC
:100E4C00796F752061726520696E20534556454E49
:100E5C0053454720544553540A0D00436F6E6E653D
:100E6C00637420612D64702070696E206F6620732E
:100E7C006576656E207365676D656E742064697345
:100E8C00706C617920746F20503020616E64207317
:100E9C00656C312D73656C342050322E302D5032F0
:100EAC002E330A0D00456E74657220616E79206BCD
:100EBC00657920746F207465737420534556454EC4
:100ECC00205345474D454E542E2E2E0A0D00436897
:100EDC0065636B20616C6C20746865207365676D4D
:100EEC00656E7420697320776F726B696E67206F03
:100EFC0072206E6F740A0D00656E7465722027790E
:100F0C002720666F722079657320616E6420276ECE
:100F1C002720666F72206E6F0A0D00616C6C207456
:100F2C006865207365676D656E74206172652077E6
:100F3C006F726B696E672E20646F20752077616EFF
:100F4C007420746F20636F6E74696E75653F0A0D43
:100F5C0000696E76616C69642063686F6963652EE5
:100F6C0074727920616761696E210A0D0070726F6D
:100F7C00626C656D20696E20646973706C6179694F
:100F8C006E6720736576656E207365676D656E742C
:100F9C002E4572726F7220706F736962696C69741E
:100FAC00792E2E2E0A0D00283129534556454E20F8
:100FBC005345474D454E542044616D616765640A45
:100FCC000D00283229636F6E6E656374696F6E2035
:100FDC0050726F626C656D0A0D00536F72727921DD
:100FEC00534556454E205345474D454E542044617C
:100FFC006D616765640A0D00436F6E6E656374699D
:10100C006F6E2070726F626C656D2E20436F6E6E0A
:10101C0065637420616363636F7264696E672074C7
:10102C006F2061626F766520696E7374727563747C
:10103C00696F6E0A0D00496E76616C696420636895
:10104C006F6963652E456E746572202831296F7245
:10105C00283229666F72206572726F722063686520
:05106C00636B0A0D009A
:0C1ED000011480011580011680011780AC
:101A6B007BFF7A0E794C021B1B7BFF7A0E79B1122E
:101A7B001DCB121F0F75A0F0E4F5807BFF7A0E795A
:101A8B00DA121DCB7BFF7A0F7904121DCB121F0FBD
:101A9B008F0CE50C6479703475A00F7BFF7A0F798E
:101AAB0027121DCB121F0F8F0DE50D647960BAE560
:101ABB000D645960B4E50D646E606FE50D644E60A6
:101ACB00697BFF7A0F795D121DCB80CFE50C646EBD
:101ADB006006E50C644E70527BFF7A0F7979804576
:101AEB007BFF7A0F79B3121DCB7BFF7A0F79CE1266
:101AFB001DCB121F0F8F0EE50EB431097BFF7A0F32
:101B0B0079E6021DCBE50EB432157BFF7A10790412
:101B1B00121DCB7BFF7A0E7967121DCB021A747BD9
:0A1B2B00FF7A107942121DCB80B63C
:011B3500228D
:10065700596F752061726520696E207377697463BD
:100667006820746573742E2E2E0A0D00436F6E6E0C
:100677006563742050312E342D50312E3720776921
:100687007468207377312D737734206F6620383084
:10069700353120446576656C6F706D656E742042E8
:1006A7006F6172640A0D00456E74657220616E7920
:1006B700206B657920746F20746573742053776994
:1006C700746368732E2E2E0A0D00616C6C2073778D
:1006D700697463686573207465737465640A0D00D3
:1006E700446F20596F752077616E7420746F207482
:1006F700657374206F6E6365206D6F72653F7072EE
:10070700657373287929666F722059657320616E46
:100717006420286E29666F7220657869740A0D0057
:100727007465737420746865207377697463680AE5
:100737000D00496E76616C6964206B657920697379
:1007470020656E74657265642174727920616761D2
:10075700696E0A0D0070726573732073776974632D
:1007670068204E4F2E002077697468696E203130FB
:10077700306D73206F662074696D6520746F207407
:100787006573740A0D007377697463680069732071
:100797006E6F7420776F726B696E670A0D006973ED
:1007A700206E6F7420707265737365642077697447
:1007B70068696E203130306D730A0D007377002041
:1007C70069732073756363657366756C6C792070E4
:1007D7007265737365640A0D007365652057484534
:1007E700544845522074686520737769746368209C
:1007F700656E746572656420627920796F7520690A
:100807007320657175616C20746F2074686520733F
:10081700776974636820646973706C61793F200A33
:100827000D00456E74657220287929666F722079EC
:10083700657320616E6420286E2920666F72206EB2
:100847006F0A0D00636F6E6E656374696F6E20705B
:10085700726F626C656D2E207265637469667920AC
:10086700636F6E6E656374696F6E206163636F7229
:1008770064696E6720746F2062656C6F7720737090
:100887006563696669636174696F6E0A0D00446F19
:1008970020796F752077616E7420746F20636F6E97
:1008A70074696E756520746F2074657374206E6546
:1008B7007874207377697463683F0A0D00707265F6
:1008C7007373287929666F722059657320616E6486
:1008D70020286E29666F7220657869740A0D007486
:1008E700657374204E657874207377697463680A3A
:1008F7000D00496E76616C6964206B657920796FAC
:100907007520656E746572656421747279206167FC
:1009170061696E0A0D00696E76616C6964206B65AA
:100927007920656E7465726564202174727920611F
:070937006761696E0A0D0003
:10125D00C201750C00750D64E4F50E7BFF7A0679FD
:10126D00570213AF7BFF7A0679AE121DCB121F0FFB
:10127D00E50E64047048F50E7BFF7A0679D1121DD8
:10128D00CB7BFF7A0679E7121DCB121F0F8F0FE56F
:10129D000F64796005E50FB459097BFF7A0779274B
:1012AD000213F2E50F646E700302141EE50F644E17
:1012BD00700302141E7BFF7A07793902140D7BFF30
:1012CD007A07795C121DCB050EE50E2430FF121F37
:1012DD00077BFF7A07796D121DCB7E007FFFEF1F15
:1012ED0070011EEF4E70F73094093095063096035D
:1012FD00209704D201800EEF1F70011ED3EF9400D2
:10130D00EE940050D5300139209405750E018050B2
:10131D00209505750E028048209605750E038040B8
:10132D00209705750E0480387BFF7A07798D121D85
:10133D00CBE50E2430FF121F077BFF7A07799480CF
:10134D006A7BFF7A07798D121DCBE50E2430FF12D3
:10135D001F077BFF7A0779A5121DCB150E0212719F
:10136D007BFF7A0779C3121DCBE50E2430FF121FC8
:10137D00077BFF7A0779C6121DCB7BFF7A0779E0D1
:10138D000214187BFF7A087929121DCB121F0F8FBB
:10139D0010E510646E6005E510B46E157BFF7A08DC
:1013AD00794B121DCB7BFF7A067973121DCB02127E
:1013BD0071E51064796006E510645970487BFF7A19
:1013CD00087995121DCB7BFF7A0879C4121DCB12BB
:1013DD001F0F8F0FE50F64796005E50FB4590F7B73
:1013ED00FF7A0879E6121DCB850E0E021271E50FFC
:1013FD00646E601DE50F644E60177BFF7A0879F906
:10140D00121DCB80B87BFF7A09791D121DCB0213FB
:01141D00903E
:01141E0022AB
:0F1EDD00759850758920758BFD758DFDD28E22FD
:081F07008F993099FDC2992267
:081F0F003098FDC298AF992241
:101DCB008B118A128913AB11AA12A913121E9560DB
:101DDB00130513E5137002051214F9121E95FF1269
:051DEB001F0780E22249
:1017C70074657374696E6720756172742E2E2E0AA4
:1017D7000D005541525420504552495048455241F9
:1017E7004C20495320574F524B494E472050524F98
:1017F7005045524C590A0D00507265737320792D6C
:1018070059455320286F7229206E2D4E30202028ED
:101817006F72292020652D457869740A0D000A0D1D
:1018270000446F20796F752077616E7420746F2084
:10183700636F6E74696E75650A0D00706C7A20703F
:10184700726573732076616C6964206B65792074A7
:101857006F20636F6E74696E75650A0D004572724D
:101867006F7220506F73736962696C69746965730D
:101877002E2E2E0A0D00636865636B207468652041
:1018870070726F6772616D206C6F6769630A0D0014
:10189700636865636B20746865206861726477614B
:0F18A700726520636F6E656374696F6E0A0D0062
:101B36007BFF7A1779C7121DCB7BFF7A1779D912EB
:101B46001DCB7BFF7A1779FF121DCB7BFF7A1879A5
:101B560025121DCB121F0F8F1BE51B647970447B6A
:101B6600FF7A187928121DCB7BFF7A1779FF121D91
:101B7600CB121F0F8F1BE51B647960B4E51BB465A0
:101B8600047F0180027F00E51BB46E047E018002A3
:101B96007E00EE4F600475800F227BFF7A18794233
:101BA600021DCBE51BB46E247BFF7A187964121DE7
:101BB600CB7BFF7A187925121DCB7BFF7A18797DAE
:0C1BC600121DCB7BFF7A187997121DCB03
:011BD20022F0
:03000000021BD30D
:0C1BD300787FE4F6D8FD758120021C1A12
:101E9500BB010689828A83E0225002E722BBFE024B
:091EA500E32289828A83E493227E
:101BDF000215BDE493A3F8E493A34003F68001F24A
:101BEF0008DFF48029E493A3F85407240CC8C33307
:101BFF00C4540F4420C8834004F456800146F6DFD6
:101C0F00E4800B0102040810204080901ECEE47E79
:101C1F00019360BCA3FF543F30E509541FFEE493CA
:101C2F00A360010ECF54C025E060A840B8E493A391
:101C3F00FAE493A3F8E493A3C8C582C8CAC583CABC
:101C4F00F0A3C8C582C8CAC583CADFE9DEE780BE74
:011EDC000005
:00000001FF
